:06000000020C7402006B0B
:03000B0002006B85
:0300130002006B7D
:03001B0002006B75
:0300230002006B6D
:03002B0002006B65
:0300330002006B5D
:03003B0002006B55
:0300430002006B4D
:03004B0002006B45
:0300530002006B3D
:03005B0002006B35
:0300630002006B2D
:01006B003262
:0900800002006B0002006B00029B
:08008900006B0002006B000295
:08009100006B0002006B00028D
:08009900006B0002006B000285
:0800A100006B0002006B00027D
:0800A900006B0002006B000275
:0700B100006B0002006B0070
:0901000002006B0002006B00021A
:08010900006B0002006B000214
:08011100006B0002006B00020C
:08011900006B0002006B000204
:08012100006B0002006B0002FC
:08012900006B0002006B0002F4
:08013100006B0002006B0002EC
:08013900006B0002006B0002E4
:08014100006B0002006B0002DC
:08014900006B0002006B0002D4
:08015100006B0002006B0002CC
:08015900006B0002006B0002C4
:08016100006B0002006B0002BC
:08016900006B0002006B0002B4
:08017100006B0002006B0002AC
:07017900006B0002006B00A7
:030C7A00020C82E7
:030C9500020C7DD1
:050C7D001203BB80FE24
:0E0180001203F090E6007412F00090E6017495
:0E018E00CBF00090E6047480F00090E604745C
:0E019C0082F00090E6047484F00090E6047493
:0E01AA0086F00090E6047488F00090E604E40D
:0E01B800F00090E602E4F00090E603E4F000B0
:0E01C60090E670E4F00090E609E4F00075CBDE
:0E01D4006375CAC0758E0075C80490E60B7482
:0E01E20003F00090E6107420F00090E6117417
:0E01F00020F00090E61274A8F00090E6137460
:0E01FE0020F00090E6147460F00090E6157496
:0E020C0060F00090E618E4F0000090E691E447
:0E021A00F00090E691E4F00090E6497402F0E6
:0E0228000090E6497402F00090E6187411F0A0
:0E0236000090E670E4F00090E609743FF000DE
:010244002297
:0B02450090E6B8E0FA30E70302031473
:0D02500090E6B9E0FABA013290E6BBE0900A
:0E025D001800F090E6BAE0901801F090E6BDAF
:0E026B00E0901802F090E6BCE0901803F075E9
:03027900160075F7
:03027C00171875DB
:09027F0018047582611205FB02EE
:02028800031061
:0D028A0090E6B9E0FABA042390E6BBE090DC
:0E0297001808F090E6BAE0901809F090E6BD65
:0E02A500E090180AF090E6BCE0FA90180BF01A
:0202B300805B6E
:0D02B50090E6B9E0FABA032390E6BBE090B2
:0E02C2001804F090E6BAE0901805F090E6BD42
:0E02D000E0901806F090E6BCE0FA901807F0F7
:0202DE0080306E
:0E02E00090E6B9E0FABA022890E6BCE0FA9087
:0702EE00E6BDE0FBBB0800C8
:0902F500500790E6BDE0FB800219
:0202FE007B087B
:060300008B087509007571
:030306000A047571
:050309000B188A8212AE
:02030E000441A8
:0403100075820122CF
:0C03140090E6B9E0FABA012E75164075AB
:0903200017E775180175826112DE
:0E032900053B90E68AE4F090E6BEE0FABA01E9
:0103370000C5
:09033800500790E6BEE0FA8002D5
:020341007A013F
:0703430090E68BEAF08065F3
:0D034A0090E6B9E0FABA025D901804E09068
:0E035700E740F0901805E090E741F09018069E
:0E036500E090E742F0901807E090E743F09038
:0E0373001808E090E744F0901809E090E74584
:0E038100F090180AE090E746F090180BE0901C
:0E038F00E747F090E68AE4F090E6BEE0FABAA6
:02039D00080056
:09039F00500790E6BEE0FA80026E
:0203A8007A08D1
:0503AA0090E68BEAF073
:0403AF007582012230
:0803B3003000FD1207D780F8AD
:0903BB00C2AF120180120BA7125F
:0803C4000741D2AF1205170238
:0203CC0003B379
:02E1000012010A
:06E10200100100000040C6
:06E10800FEFF0200000111
:04E10E000102030106
:0AE112000A061001FFFFFF400100A4
:07E11C0009022200020100CC
:0EE1230080C80904000000FFFFFF020904018C
:0DE131000001FFFFFF0407050202000400CB
:0EE13E001201100100000040FEFF020000016F
:04E14C0001020301C8
:0AE150000A061001FFFFFF40010066
:0EE15A000902120001010080C8090400000043
:04E16800FFFFFF02B4
:01E16C0005AD
:02E16D0078E157
:02E16F007EE14F
:02E17100A6E125
:02E17300C8E101
:02E17500DAE1ED
:06E178000603000009048B
:0EE17E00280346007200650065002000530073
:0EE18C006F006600740077006100720065008D
:0CE19A00200046006F006C006B0073005A
:0EE1A60022035500530052005000200050008C
:0EE1B40072006F0074006F00200052006500C2
:06E1C20076002000300091
:0EE1C800120331002E00320033003400350007
:04E1D60036003700D8
:0EE1DA0012035400720061006E0073006D00AD
:04E1E8006900740056
:0803CE00780CE84400600C7992
:0C03D60001901800E4F0A3D8FCD9FAD084
:0E03E20083D082F6D8FDC082C08375820022CF
:0703F00043808943B28B2218
:0403F700AA827B80DB
:0D03FB005380F700EB5A600543800180033A
:030408005380FE20
:0C040B000043800800EBC313FB70E522E7
:06041700AA82AB837C8089
:0E041D005380F70043800800E58030E00F8A2E
:0E042B00828B83E0FDEC42058A828B83EDF02C
:0804390000ECC313FC70DD228E
:0E044100AA8253807F00008A82C0021203F755
:0D044F00D002EA30E74053B2FE7B007C0093
:0A045C00C3EB9508EC64808509F0FD
:0C04660063F08095F0507AEB250AFDEC65
:0C047200350BFE8D828E83E4F08D828EAF
:0E047E0083C002C003C004120417D004D003D0
:09048C00D0020BBB00CA0C80C7B2
:040495007B007C006C
:0A049900C3EB9508EC64808509F0C0
:0C04A30063F08095F05023EB250AF582F1
:0C04AF00EC350BF583E0F582C002C003C1
:0E04BB00C0041203F7D004D003D0020BBB0024
:0404C900CF0C80CC08
:0D04CD0043800200000000900001C00212F8
:0D04DA000C635380FD900001120C63D002F2
:0D04E7004380800000EA30E70443B20100CA
:0104F40022E5
:0804F50090E6A0E04401F022B2
:0E04FD00AA8274805AC423541FFB740F5A90B5
:0C050B00E6834BF090E683E04420F022F1
:0E05170090E680E0440AF09000FA120C639027
:0E052500E65D74FFF090E65F74FFF05391EF17
:0805330090E680E054F7F0228D
:060C8F00E478FFF6D8FD39
:0A053B00AA82E518700475820122FF
:0E05450090E678E0FB20E6F890E6787480F00F
:0A055300EA2AFA90E67974014AF0F2
:0E055D0090E678E0FA30E0F890E678E0FA30C8
:05056B00E2030205F0AF
:0B05700090E678E0FA20E1030205F0BD
:0C057B007401B5180890E678E0FA4420FE
:01058700F083
:0905880090E679E0F519AA16AB22
:0305910017AC188C
:040594001CEC6030CB
:0E05980090E678E0FD30E0F890E678E0FD2097
:0D05A600E248BC010890E678E0FD4420F03A
:0E05B30090E679E0FD8A828B83F0A3AA82ABEA
:0705C100838A168B1780CC22
:0E05C80090E678E0FA30E0F890E678E0FA206D
:0C05D600E21890E678E04440F0AA16AB72
:0C05E2001790E679E08A828B83F0758226
:0205EE000122E8
:0B05F00090E678E04440F075820022A5
:0205FB00AA82D2
:0E05FD0090E678E0FB20E6F890E6787480F057
:07060B00EA2AFA90E679F0FB
:0E06120090E678E0FA30E0F890E678E0FA2022
:0C062000E24790E678E0FA30E13FAA16CD
:04062C00AB17AC1844
:0E063000EC602B8A828B83E0FDA3AA82AB8351
:06063E0090E679EDF01CCE
:0E06440090E678E0FD30E0F890E678E0FD20EA
:0C065200E21590E678E0FD20E1D4800B7A
:0B065E0090E678E04440F07582012235
:0B06690090E678E04440F0758200222B
:060C7400750C00750D0077
:0A06740090E680E0FA30E719750EF9
:03067E0000750FF5
:03068100E1751010
:03068400127511DB
:03068700E1751208
:03068A001C7513C9
:03068D00E1751400
:030690005A751583
:02069300E12262
:04069500750E3E752B
:030699000FE175F9
:03069C0010507586
:03069F0011E175F1
:0306A200125A7574
:0306A50013E175E9
:0306A800141C75AA
:0306AB0015E12234
:0906AE005391EF75A100D2003256
:0C06B700C021C0E0C0F0C082C083C002BF
:0E06C300C003C004C005C006C007C000C001CF
:0E06D100C0D075D0005391EF75A100120674D1
:0E06DF00D0D0D001D000D007D006D005D00476
:0D06ED00D003D002D083D082D0F0D0E0D076
:0206FA002132AB
:0C06FC00C021C0E0C0F0C082C083C0027A
:0E070800C003C004C005C006C007C000C00189
:0E071600C0D075D0005391EF75A1001206748B
:0E072400D0D0D001D000D007D006D005D00430
:0D073200D003D002D083D082D0F0D0E0D030
:02073F00213265
:0507410012067475169C
:03074600AE751776
:0807490006758200120B007519
:0307510016B77563
:0607540017067582101269
:04075A000B00751605
:03075E00FC751710
:0C07610006758214120B0090E65C7431E7
:02076D00F02278
:0D076F00E582547FFA24F7500475820022C1
:07077C00BA0104758201229D
:08078300530201E4BA00010475
:03078B00F58222D2
:0E078E00AA82BA010C90E6A1E0FB7C008B82EF
:03079C008C832229
:0E079F00BA810C90E6A2E0FB7C008B828C837A
:0107AD002229
:0E07AE0053027FEA700C90E6A0E0FB7C008B0B
:0407BC00828C832286
:0E07C00090E6A3E0FB7C00EAC313FA7D00EA9A
:0907CE002BFBED3C8B82F583222C
:0C07D700C20090E6B8E0FA530260BA00DD
:0307E30002802869
:0507E600BA2002800DA5
:0507EB00BA4002800E7F
:0507F000BA6002800365
:0307F500020A9560
:0607F8001204F5020A954F
:0A07FE00120245E5826003020A952D
:060808001204F5020A953E
:0D080E0090E6B8E0FA530280BA8002800341
:03081B0002099639
:0B081E0090E6B9E0FABA000302090FEF
:05082900BA0602803553
:05082E00BA0802800879
:05083300BA0A02801763
:0308380002099022
:0C083B0090E740E50CF090E68AE4F090B5
:08084700E68B7401F0020A9532
:0C084F0090E740E50DF090E68AE4F090A0
:08085B00E68B7401F0020A951E
:0A08630090E6BBE0FABA010280172C
:05086D00BA0202803810
:05087200BA03028059E9
:05087700BA0602801B1F
:05087C00BA0702803CF8
:0308810002090960
:0A088400AA0EAB0F90E6B3EBF07B79
:09088E000090E6B4EAF0020A95BC
:0A089700AA10AB1190E6B3EBF07B62
:0908A1000090E6B4EAF0020A95A9
:0A08AA00AA12AB1390E6B3EBF07B4B
:0908B4000090E6B4EAF0020A9596
:0A08BD00AA14AB1590E6B3EBF07B34
:0908C7000090E6B4EAF0020A9583
:0E08D00090E6BAE0FA90E16CE0FBC3EA9B40D0
:0708DE00061204F5020A9561
:0C08E50090E6BAE075F002A4246DF582E4
:0B08F10074E135F0F583E0FAA3E0901D
:0D08FC00E6B3F07B0090E6B4EAF0020A9546
:060909001204F5020A953C
:0D090F0090E6B8E0FA53021FBA0002800A19
:05091C00BA0102801B7E
:05092100BA0266802C03
:0E09260090E740E4F090E741F090E68AF09010
:08093400E68B7402F0020A9543
:0E093C0090E740E4F090E741F090E68AF090FA
:08094A00E68B7402F0020A952D
:0E09520090E6BCE0F58212076FE5826025900A
:0E096000E6BCE0F58212078EE0FA5302019029
:0E096E00E740EAF090E741E4F090E68AF0906E
:08097C00E68B7402F0020A95FB
:060984001204F5020A95C1
:06098A001204F5020A95BB
:060990001204F5020A95B5
:0C09960090E6B9E0FA24F45003020A9243
:0709A200EA2A2A9009A9735B
:0709A900020A920209DF02BD
:0609B0000A5A020A3B0294
:0609B6000A92020A9202FF
:0609BC000A92020A9202F9
:0609C2000A920209CD02B9
:0509C8000A920209D6AD
:0909CD0090E6BAE0F50C020A956F
:0909D60090E6BAE0F50D020A9565
:0D09DF0090E6B8E0FA53021FBA000280054E
:0509EC00BA0247800A79
:0A09F10090E6BAE01204F5020A9540
:0D09FB0090E6BAE0703090E6BCE0F58212A4
:0D0A0800076FE582602390E6BCE0F58212E6
:0E0A1500078EAA82AB83E0FC5304FE8A828B1C
:0E0A230083ECF090E6BCE0F5821204FD8064E6
:050A31001204F5805FD6
:050A36001204F5805AD6
:0E0A3B0090E6B8E0FA53021FBA004F90E6BAF8
:070A4900E0FABA010280058A
:050A5000BA0202804023
:050A55001204F5803BD6
:0E0A5A0090E6BAE0FA702C90E6BCE0F582124D
:0D0A6800076FE582601A90E6BCE0F582128F
:0E0A7500078EAA82AB83E0FC4304018A828BC9
:050A830083ECF0800D82
:050A88001204F58008D6
:050A8D001204F58003D6
:030A92001204F556
:080A950090E6A0E04480F0228D
:050A9D00AA82BA03006B
:070AA2004005EA249C50010D
:010AA900222A
:090AAA00740F5AFBBB0302800724
:070AB300740F5AFBBB0B4559
:0A0ABA00A2AF9201C2AFEA2400F5DA
:0C0AC40082E43400F5837402F07B0074BF
:0C0AD000012AFCE43BFDEC2400F582ED63
:0A0ADC003400F583E517FCF0740206
:0C0AE6002AFAE43BFBEA2400F582EB3422
:0A0AF20000F583AA167B00EAF0A2CB
:030AFC000192AFB5
:010AFF0022D4
:080B0000E582FA248350012272
:060B0800EA540360012223
:0A0B0E00A2AF9202C2AFEA2400F584
:0C0B180082E43401F5837402F07B007469
:0C0B2400012AFCE43BFDEC2400F582ED0E
:0A0B30003401F583E517F074022A82
:0B0B3A00FAE43BFBEA2400F582EB34F8
:080B450001F583AA16EAF0A2F3
:040B4D000292AF223F
:050B5100AA82BA800039
:070B56004005EA244B5001A9
:010B5D002275
:060B5E00EA5403600122CD
:0A0B6400A2AF9203C2AFEA2480F5AD
:0C0B6E0082E43400F5837402F07B007414
:0C0B7A00012AFCE43BFDEC2480F582ED38
:0A0B86003400F583E517F074022A2D
:0B0B9000FAE43BFBEA2480F582EB3422
:080B9B0000F583AA16EAF0A29E
:040BA3000392AF22E8
:080BA700C2E8C2EA75160075F0
:060BAF00170175824312DC
:040BB5000A9D75160A
:030BB9008075172D
:0C0BBC0000758253120A9D0090E650E480
:0E0BC800F00090E652E4F00090E654E4F000F5
:0E0BD60090E656E4F00090E65174FFF00090B7
:0E0BE400E65374FFF00090E65574FFF00090A9
:0E0BF200E65774FFF00090E658E4F090E659E4
:0E0C000074FFF090E65AE4F090E65B74FFF0AB
:0E0C0E0090E65CE4F090E65D74FFF090E65E28
:0E0C1C00E4F090E65F74FFF00090E660E4F014
:0D0C2A000090E66174FFF090E662E4F09047
:0E0C3700E66374FFF090E665E4F090E6687402
:0A0C45000BF05391AFD2E8D2EA227F
:010C4F002282
:020C5000AA8276
:060C5200120C4FDAFB2238
:030C580090FB50BE
:080C5B00A3E582458370F92234
:040C6300AA82AB8333
:080C6700120C581ABAFF011B20
:050C6F00EA4B70F422C5
:030C820075812158
:0A0C85001203CEE5826003020C7D2D
:00000001FF
